S01600004D61747269785F6B62645F6C69622E7372656373
S11300000C942A000C943C000C943C000C943C008E
S11300100C943C000C943C000C943C000C943C006C
S11300200C943C000C943C000C943C000C943C005C
S11300300C943C000C943C000C943C000C943C004C
S11300400C943C000C943C000C943C000C943C003C
S11300500C943C0011241FBECFE5D8E0DEBFCDBF19
S113006020E0A0E6B0E001C01D92A036B207E1F79F
S11300700E943E000C9412010C94000081E40E9442
S11300804A008FEF87BB88BB61E484E60E94AB0023
S113009088BBFACF823471F018F4813431F00895BA
S11300A0833469F0843481F0089580EF8ABB8FE053
S11300B08BBB089580EF87BB8FE088BB089580EFEA
S11300C084BB8FE085BB089580EF81BB8FE082BB4A
S11300D00895823459F018F4813431F0089583344A
S11300E039F0843439F008956BBB089568BB0895E2
S11300F065BB089562BB0895823461F018F48134BD
S113010031F011C0833449F0843451F00CC089B308
S11301108F70089586B38F70089583B38F70089598
S113012080B38F70089580EF08958B30910559F056
S11301301CF4079751F00BC08D30910551F00E97C8
S113014031F481E0089583E0089584E0089580E027
S1130150089582E008950F931F93CF93DF93162F92
S113016021E08D3409F020E091E08D3609F090E033
S1130170922B99F06FEE812F0E9469008FE39FE12B
S11301800197F1F700C00000812F0E947C00082E27
S1130190000C990B0E94950040C021E0843409F0C2
S11301A020E091E0843609F090E0922B79F580E02C
S11301B034C061E070E00C2E02C0660F771F0A9411
S11301C0E2F76095812F0E946900EFE3FFE1319728
S11301D0F1F700C00000812F0E947C00082E000C63
S11301E0990B0E949500EFE9FFE03197F1F700C009
S11301F00000882349F0082E000C990B0197880F02
S1130200880F8C0F0DEF080F219603C0C4E0D0E0D7
S113021000E0C830D1056CF2802FDF91CF911F919F
S10B02200F910895F894FFCF3B
S9030000FC
