:100000000C9435000C9452000C9452000C94520045
:100010000C9452000C9452000C9452000C94520018
:100020000C9452000C9452000C9452000C94520008
:100030000C9452000C9452000C9452000C945200F8
:100040000C9452000C9452000C9452000C945200E8
:100050000C9452001020408001020304050607089A
:10006000090A0B0C0D0E0F10000011241FBECFE566
:10007000D8E0DEBFCDBF10E0A0E6B0E0E8E8F9E0F0
:1000800002C005900D92AC3DB107D9F711E0ACED7F
:10009000B0E001C01D92A13EB107E1F70E946201EC
:1000A0000C94C2040C940000FC01623489F06334A7
:1000B00018F4613419F505C0633489F06434F1F43F
:1000C00015C08AE390E0918380838BE390E014C0B5
:1000D00087E390E09183808388E390E00DC084E320
:1000E00090E09183808385E390E006C081E390E017
:1000F0009183808382E390E0938382830190F081F7
:10010000E02D8FEF80830895DC011296ED91FC9134
:1001100013978081816080831296ED91FC911397F3
:100120008081607F8F70862B80831296ED91FC9189
:10013000139780818E7F808381E08A95F1F70895FF
:10014000FF920F931F938C01F62EDC011296ED9116
:10015000FC911397808182608083607FC8010E9438
:100160008400F29480EFF822C8016F2D0E94840071
:100170008DE08A95F1F71F910F91FF900895FF92FE
:100180000F931F938C01F62EDC011296ED91FC91DA
:10019000139780818D7F8083607FC8010E948400D7
:1001A000F29490EFF922C8016F2D0E9484008DE037
:1001B0008A95F1F71F910F91FF9008954295440F92
:1001C000440F407C460F4068642F0E94BF00089592
:1001D0001F93CF93DF93EC01162F0E94DE0005C022
:1001E000CE0160E20E94A0001F5F1031C8F3DF91D2
:1001F000CF911F910895CF92DF92EF92FF921F93BC
:10020000CF93DF937C016B0110E00BC0103121F420
:10021000C70160EC0E94BF00C70168810E94A00076
:100220001F5FE601C10FD11D8881882379F7DF9117
:10023000CF911F91FF90EF90DF90CF90089561E0F4
:100240000E94BF0084EF91E00197F1F70895FF92BB
:100250000F931F938C010E94540088E893E101974B
:10026000F1F7C80160E30E94840082EE94E00197F8
:10027000F1F7C80160E30E94840021E2F22E8F2D85
:100280008A95F1F7C80160E30E9484008F2D8A955A
:10029000F1F7C80160E20E948400FA94F1F7C80106
:1002A00068E20E94BF00C8016CE00E94BF00C80164
:1002B0000E941F01C80166E00E94BF001F910F91BC
:1002C000FF900895EF92FF920F931F93DF93CF93C8
:1002D000CDB7DEB728970FB6F894DEBF0FBECDBFFF
:1002E00081E40E94F8038FEF81BB82BB7E010894FA
:1002F000E11CF11CC70162E40E9427018E010B5F23
:100300001F4FC801B7010E94AA02C8010E946002E3
:10031000F02EE12E01C0012F84E661E40E945C040E
:10032000182F0817C9F38F2D9E2D0E9460021830D8
:1003300081F0193018F4143071F705C01C3079F0D1
:10034000103149F712C08F2D9E2D0E94C60104E086
:10035000E3CF8F2D9E2D0E94BB0108E0DDCF8F2DB6
:100360009E2D0E94F8010CE0D7CF8F2D9E2D0E946C
:10037000E70100E1D1CFDC01ED91FC911197838978
:100380009489009711F08D939C930895DC01ED9171
:10039000FC91119781899289009711F08D939C931C
:1003A0000895DC01ED91FC9111978589968900975C
:1003B00011F08D939C930895DC01ED91FC911197C0
:1003C0008789908D009711F08D939C930895FC017F
:1003D000009769F0A081B181109749F059962D914D
:1003E0003C915A972115310511F0F90109950895AD
:1003F000FC01009769F0A081B181109749F05B96EC
:100400002D913C915C972115310511F0F901099569
:1004100008950F931F93CF93DF938C01FC0182818A
:1004200093810E941F01F8018281938160E670E050
:100430000E94FB00C1E0D0E000E513EC8DE690E007
:1004400061E470E00E945C040197A1F140E050E09B
:10045000CE01042E02C0880F991F0A94E2F74F5F65
:100460005F4F9E01042E02C0220F331F0A94E2F751
:10047000822B82BBC8010197F1F74730510541F744
:1004800046E050E0CA0101979E01082E02C0220FEB
:10049000331F0A94E2F7BE0102C0660F771F4A9528
:1004A000E2F7262B22BBF8013197F1F7AC01882344
:1004B00049F7C4CF12BADF91CF911F910F910895E0
:1004C000CF93DF93EC01009709F441C088819981B3
:1004D000892BE9F18A819B810E941F018A819B817E
:1004E0006EE30E94A000E881F98185899689892BB5
:1004F00029F08A819B816BE20E94A000688179814A
:100500008A819B810E94FB008A819B8160E041E09F
:100510000E94DE00E881F9810388F489E02D30979C
:1005200081F085899689892B29F08A819B816BE2EC
:100530000E94A000E881F981638974898A819B8186
:1005400004C08A819B8161E770E00E94FB00DF911B
:10055000CF9108956F927F928F929F92AF92BF92A8
:10056000CF92DF92EF92FF920F931F93FC0104EC66
:1005700011E01183008373836283C8016BE770E02D
:100580000E94BB0447EAC42E41E0D42ED092D80189
:10059000C092D7011092D6011092D5011092DA01C3
:1005A0001092D9011092DC011092DB0131ED832E03
:1005B00031E0932E9092DE018092DD012CEDE22E4F
:1005C00021E0F22EF092E001E092DF01C60162E844
:1005D00070E00E94BB049AE8692E91E0792E709237
:1005E000BB016092BA011093B9010093B801109257
:1005F000BD011092BC011092BF011092BE019092F9
:10060000C1018092C001F092C301E092C201C30116
:1006100069E870E00E94BB0410929E0110929D0157
:10062000D0929C01C0929B011092A00110929F0158
:100630001092A2011092A1019092A4018092A301B4
:10064000F092A601E092A5018DE6A82E81E0B82ED9
:10065000C50160E970E00E94BB0480E591E09093E1
:1006600081018093800110927F0110927E0110928F
:100670008301109282011093850100938401B0924E
:10068000DA01A092D90129E032E03093870120936A
:100690008601F0928901E09288016CE970E00E9485
:1006A000BB041092640110926301B0926201A092A7
:1006B0006101109266011092650110936801009328
:1006C000670110926A0110926901F0926C01E09248
:1006D0006B0103E311E0C80168EA70E00E94BB040B
:1006E00086E191E090934701809346011092450185
:1006F000109244011092490110924801D0924B018E
:10070000C0924A011093BD010093BC0110924D01AB
:1007100010924C01F0924F01E0924E0164EB70E0B8
:100720000E94BB0410922A01109229011093280103
:100730000093270110922C0110922B01D0922E01D0
:10074000C0922D019092300180922F01F0923201DF
:10075000E092310109EF10E0C80160EC70E00E9406
:10076000BB048CED90E090930D0180930C011092EE
:100770000B0110920A0110920F0110920E0170925B
:100780001101609210011093A00100939F019092BB
:10079000130180921201F0921501E09214016CECA9
:1007A00070E00E94BB041092F0001092EF001093D2
:1007B000EE000093ED00B092F200A092F100709272
:1007C000F4006092F3009092F6008092F500F092AF
:1007D000F800E092F7001F910F91FF90EF90DF90EB
:1007E000CF90BF90AF909F908F907F906F90089523
:1007F000823479F0833418F48134C9F405C0833429
:1008000069F08434A1F40FC080EF8ABB8FE08BBB0A
:10081000089580EF87BB8FE088BB089580EF84BB8D
:100820008FE085BB089580EF81BB8FE082BB089588
:10083000823461F0833418F4813469F405C0833460
:1008400039F0843441F406C06BBB089568BB089549
:1008500065BB089562BB0895823469F0833418F44F
:10086000813429F406C0833441F0843449F080EFA8
:10087000089589B303C086B301C083B38F70089510
:1008800080B38F7008958B30910581F08C30910585
:100890001CF4079779F40CC08D30910519F00E9770
:1008A00049F402C082E0089581E0089583E008954C
:1008B00084E0089580E00895CF92DF92EF92FF9256
:1008C0000F931F93CF93DF93062F8D3411F08D3646
:1008D00091F4802F6FEE0E9418048AEF90E0019748
:1008E000F1F7802F0E942C04992787FD90950E9494
:1008F0004304182F36C0843421F0843611F010E000
:1009000030C010E0C4E0D0E041E0C42ED12C3AEF7A
:10091000E32EF12CB6010C2E02C0660F771F0A944D
:10092000E2F76095802F0E941804C7010197F1F744
:10093000802F0E942C04992787FD90950E944304E4
:10094000882359F0992787FD90950197880F991F63
:10095000880F991F182F13501C0F2196C830D105EE
:10096000C9F6812FDF91CF911F910F91FF90EF90EA
:10097000DF90CF900895FB01DC0101900D920020E3
:08098000E1F70895F894FFCFA0
:10098800486F6C64203120746F20657363617065F3
:1009980000232323454E44232323004D656E7520F1
:1009A80031004D656E752032004D656E752033003F
:1009B80050726F6772616D20315F310050726F67DE
:1009C80072616D20315F320050726F6772616D2005
:1009D800325F310050726F6772616D20325F320092
:1009E80050726F6772616D20335F3100506F77729C
:0C09F8006F7420646F204D656E75310037
:00000001FF
