S00C00006D61696E2E7372656373
S11300000C942A000C943F000C943F000C943F0085
S11300100C943F000C943F000C943F000C943F0060
S11300200C943F000C943F000C943F000C943F0050
S11300300C943F000C943F000C943F000C943F0040
S11300400C943F000C943F000C943F000C943F0030
S11300500C943F0011241FBECFE5D8E0DEBFCDBF16
S113006010E0A0E6B0E0ECE1F3E002C005900D92F0
S1130070A037B107D9F70E9444010C948C010C9469
S11300800000FB01823491F018F4813431F028C06F
S11300908334A9F08434E1F023C08AE390E09183AF
S11300A080838BE390E0938382831AC087E390E09C
S11300B09183808388E390E09383828311C084E3F7
S11300C090E09183808385E390E09383828308C0EA
S11300D081E390E09183808382E390E09383828341
S11300E00190F081E02D8FEF80830895FB01A281C0
S11300F0B3819C9191609C93A281B3819C91282FA0
S1130100207F9F70922B9C93A281B3819C919E7FB0
S11301109C930000A281B3819C9191609C9320E107
S1130120829FC0011124A281B3819C919F70892B6D
S11301308C930280F381E02D80818E7F808380E127
S11301408A95F1F700C00895CF93DF93EC01EA811B
S1130150FB8180818D7F8083BE0181E00E947600D7
S1130160EA81FB8180818260808387E99AE3019739
S1130170F1F700C00000DF91CF910895CF93DF9392
S1130180EB010E944100E881F98183EF8083EA81D9
S1130190FB811082EA81FB8180818D7F8083BE0197
S11301A088E20E947600EA81FB81808182608083FC
S11301B0EA81FB81808182608083BE0186E00E94A7
S11301C07600EA81FB81808182608083EA81FB8101
S11301D080818D7F8083BE018CE00E947600EA815D
S11301E0FB81808182608083CE010E94A400DF9124
S11301F0CF910895CF93DF93EA01EA81FB81908147
S11302009D7F9083E1EEF4E03197F1F700C00000A8
S1130210F0E46F9F800D1124BA0180680E9476007B
S1130220EA81FB8180818260808381EE94E0019782
S1130230F1F700C00000DF91CF9108950F931F9351
S1130240CF938A010E94FA00C0E005C0B80180E2A1
S11302500E947600CF5FC031C8F3CF911F910F91F8
S113026008950F931F93CF93DF93EC018B0104C088
S1130270B8010E947600219688818111F9CFDF911F
S1130280CF911F910F910895CF93DF9300D000D0A9
S1130290CDB7DEB7BE016F5F7F4F82E40E94BE0020
S11302A0CE0101960E94A400AE014F5F5F4F60E053
S11302B080E00E94FA00BE016F5F7F4F81E40E94DC
S11302C07600BE016F5F7F4F83E60E947600BE0119
S11302D06F5F7F4F82E60E947600AE014F5F5F4FF3
S11302E061E080E00E94FA00BE016F5F7F4F80E60C
S11302F090E00E9431012FE986E891E0215080408E
S11303009040E1F700C00000AE014F5F5F4F61E035
S10F031083E00E941E01FFCFF894FFCF91
S113031C447A697369616A2070696174656B000061
S9030000FC
