:100000000C9435000C9452000C9452000C94520045
:100010000C944C020C9452000C9452000C9452001C
:100020000C9452000C9452000C9411020C94520047
:100030000C9452000C9452000C9452000C945200F8
:100040000C9452000C9452000C9452000C945200E8
:100050000C9452001020408001020304050607089A
:10006000090A0B0C0D0E0F10000011241FBECFE566
:10007000D8E0DEBFCDBF10E0A0E6B0E0ECE4F2E1F6
:1000800002C005900D92AE3EB107D9F712E0AEEE78
:10009000B0E001C01D92A030B107E1F70E946201FB
:1000A0000C9424090C940000FC01623489F0633440
:1000B00018F4613419F505C0633489F06434F1F43F
:1000C00015C08AE390E0918380838BE390E014C0B5
:1000D00087E390E09183808388E390E00DC084E320
:1000E00090E09183808385E390E006C081E390E017
:1000F0009183808382E390E0938382830190F081F7
:10010000E02D8FEF80830895DC011296ED91FC9134
:1001100013978081816080831296ED91FC911397F3
:100120008081607F8F70862B80831296ED91FC9189
:10013000139780818E7F808381E08A95F1F70895FF
:10014000FF920F931F938C01F62EDC011296ED9116
:10015000FC911397808182608083607FC8010E9438
:100160008400F29480EFF822C8016F2D0E94840071
:100170008DE08A95F1F71F910F91FF900895FF92FE
:100180000F931F938C01F62EDC011296ED91FC91DA
:10019000139780818D7F8083607FC8010E948400D7
:1001A000F29490EFF922C8016F2D0E9484008DE037
:1001B0008A95F1F71F910F91FF9008954295440F92
:1001C000440F407C460F4068642F0E94BF00089592
:1001D0001F93CF93DF93EC01162F0E94DE0005C022
:1001E000CE0160E20E94A0001F5F1031C8F3DF91D2
:1001F000CF911F910895CF92DF92EF92FF921F93BC
:10020000CF93DF937C016B0110E00BC0103121F420
:10021000C70160EC0E94BF00C70168810E94A00076
:100220001F5FE601C10FD11D8881882379F7DF9117
:10023000CF911F91FF90EF90DF90CF90089561E0F4
:100240000E94BF0084EF91E00197F1F70895FF92BB
:100250000F931F938C010E94540088E893E101974B
:10026000F1F7C80160E30E94840082EE94E00197F8
:10027000F1F7C80160E30E94840021E2F22E8F2D85
:100280008A95F1F7C80160E30E9484008F2D8A955A
:10029000F1F7C80160E20E948400FA94F1F7C80106
:1002A00068E20E94BF00C8016CE00E94BF00C80164
:1002B0000E941F01C80166E00E94BF001F910F91BC
:1002C000FF900895EF92FF920F931F93DF93CF93C8
:1002D00000D000D0CDB7DEB781E40E9481058FEF5A
:1002E00081BB82BB8CEF91E062E40E9427018E010A
:1002F0000F5F1F4FC8016CEF71E00E942704C80117
:100300000E94DD030E9405020E94400278947E0153
:100310000894E11CF11C01C0102F84E661E40E94E6
:10032000E505082F1817C9F3C7010E94DD0308303F
:1003300079F0093018F4043079F705C00C3069F011
:10034000003151F70FC0C7010E94C20114E0E5CF90
:10035000C7010E94B70118E0E0CFC7010E94E30186
:100360001CE0DBCFC7010E94F40110E1D6CFDC0115
:10037000ED91FC91119783899489009711F08D93E9
:100380009C930895DC01ED91FC91119781899289EC
:10039000009711F08D939C930895DC01ED91FC91F1
:1003A000119785899689009711F08D939C930895F4
:1003B000DC01ED91FC9111978789908D009711F0E8
:1003C0008D939C930895FC01009769F0A081B18101
:1003D000109749F059962D913C915A972115310566
:1003E00011F0F90109950895FC01009769F0A081C9
:1003F000B181109749F05B962D913C915C97211546
:10040000310511F0F9010995089583B7886083BF1C
:1004100084E68CBF89B7826089BF83B7856083BF5C
:1004200008951F920F920FB60F9211248F939F93EE
:100430008091EE008823E9F01092EF008BB3806F7B
:100440008BBBDC9883E08A95F1F789B38F7080FDD0
:1004500002C081E30BC081FD02C084E307C082FDBE
:1004600002C087E303C083FD03C083E48093EF00F1
:10047000DC9A9F918F910F900FBE0F901F9018954F
:1004800085B5886085BD84EF83BD89B7806889BFE5
:1004900085B5876085BD08951F920F920FB60F92A4
:1004A00011248F939F93AF93BF938091F60088237D
:1004B00021F082B391E0892782BB8091F5008F5FA4
:1004C0008093F5008091F5008230C8F01092F5001D
:1004D0008091F000882399F08091F1009091F200D2
:1004E000A091F300B091F4000196A11DB11D80937D
:1004F000F1009093F200A093F300B093F400BF9149
:10050000AF919F918F910F900FBE0F901F901895F4
:10051000EF92FF920F931F93DF93CF9300D0CDB74D
:10052000DEB78C01FC01828193810E941F01F801DA
:100530008281938160E670E00E94FB0081E08093FD
:10054000EE007E010894E11CF11C8091EF008823ED
:10055000E1F38091EF00833491F0F801828193817F
:100560000E941F018091EF0089831A82F801828125
:100570009381B7010E94FB001092EF00E6CF10922A
:10058000EE001092EF000F900F90CF91DF911F912E
:100590000F91FF90EF9008950F931F93CF93DF93E8
:1005A0008C01FC01828193810E941F01F8018281EC
:1005B000938160E670E00E94FB00C1E0D0E000E5BE
:1005C00013EC8DE690E061E470E00E94E50504978D
:1005D000A1F140E050E0CE01042E02C0880F991F27
:1005E0000A94E2F74F5F5F4F9E01042E02C0220F74
:1005F000331F0A94E2F7822B82BBC8010197F1F7FF
:100600004730510541F746E050E0CA0101979E018D
:10061000082E02C0220F331F0A94E2F7BE0102C067
:10062000660F771F4A95E2F7262B22BBF801319718
:10063000F1F7AC01882349F7C4CF12BADF91CF910B
:100640001F910F9108950F931F938C01FC018281DC
:1006500093810E941F01F8018281938160E670E01E
:100660000E94FB0081E08093F6008DE690E061E45B
:1006700070E00E94E5050497C1F71092F60012BAE7
:100680001F910F910895AF92BF92CF92DF92FF9288
:100690000F931F93DF93CF93CDB7DEB760970FB65D
:1006A000F894DEBF0FBECDBF8C01DC0112968D9198
:1006B0009C9113970E941F016E010894C11CD11CCC
:1006C00085E7A82E80E0B82E84E690E061E470E033
:1006D0000E94E505F82E8091F5008823A1F5409150
:1006E000F1005091F2006091F3007091F400EDB7C9
:1006F000FEB738970FB6F894FEBF0FBEEDBF319628
:10070000ADB7BEB71296DC92CE921197B382A28299
:1007100044835583668377830E944C06EDB7FEB70A
:1007200038960FB6F894FEBF0FBEEDBFD8011296F3
:100730008D919C9113970E941F01F80182819381F2
:10074000B6010E94FB00F6E0FF1661F120E1F2160F
:1007500069F032E0F31609F0B7CF8091F00090E035
:10076000882309F491E09093F000AECF1092F1004D
:100770001092F2001092F3001092F4001092F50023
:100780001092F00060960FB6F894DEBF0FBECDBF9A
:10079000CF91DF911F910F91FF90DF90CF90BF908D
:1007A000AF9008951092F1001092F2001092F300B1
:1007B0001092F4001092F50087CFCF93DF93EC01F5
:1007C000009709F441C088819981892BE9F18A81D8
:1007D0009B810E941F018A819B816EE30E94A00081
:1007E000E881F98185899689892B29F08A819B8105
:1007F0006BE20E94A000688179818A819B810E94BE
:10080000FB008A819B8160E041E00E94DE00E8817C
:10081000F9810388F489E02D309781F085899689E4
:10082000892B29F08A819B816BE20E94A000E881DC
:10083000F981638974898A819B8104C08A819B8143
:1008400063E870E00E94FB00DF91CF9108954F9222
:100850005F926F927F928F929F92AF92BF92CF9250
:10086000DF92EF92FF920F931F93FC01AFEDCA2E20
:10087000A1E0DA2ED182C08273836283C6016DE863
:1008800070E00E94450652ECA52E51E0B52EB092C4
:10089000F301A092F2011092F1011092F001109276
:1008A000F5011092F4011092F7011092F6014DEC4F
:1008B000442E41E0542E5092F9014092F80138ED57
:1008C000E32E31E0F32EF092FB01E092FA01C50134
:1008D00064E970E00E94450625EA622E21E0722E4E
:1008E0007092D6016092D501D092D401C092D3010A
:1008F0001092D8011092D7011092DA011092D9010A
:100900005092DC014092DB01F092DE01E092DD01C9
:10091000C3016BE970E00E9445061092B901109284
:10092000B801B092B701A092B6011092BB0110922B
:10093000BA011092BD011092BC015092BF014092C9
:10094000BE01F092C101E092C00198E8892E91E0C9
:10095000992EC40162EA70E00E9445068BE691E0A0
:1009600090939C0180939B0110929A01109299019F
:1009700010929E0110929D01D092A001C0929F0101
:100980009092F5018092F40108E812E01093A20120
:100990000093A101F092A401E092A3016EEA70E03D
:1009A0000E94450610927F0110927E0190927D0177
:1009B00080927C011092810110928001D09283017B
:1009C000C09282011093850100938401F092870107
:1009D000E09286010EE411E0C8016AEB70E00E942B
:1009E000450681E391E0909362018093610110924A
:1009F000600110925F011092640110926301B09245
:100A00006601A09265011093D8010093D70123E2FB
:100A100033E03093680120936701F0926A01E0921D
:100A2000690166EC70E00E94450610924501109243
:100A30004401109343010093420110924701109228
:100A40004601B0924901A092480183E493E090935B
:100A50004B0180934A01F0924D01E0924C0104E178
:100A600011E0C80162ED70E00E94450687EF90E05A
:100A7000909328018093270110922601109225015E
:100A800010922A011092290170922C0160922B0180
:100A90001093BB010093BA012CEC32E030932E018D
:100AA00020932D01F0923001E0922F016EED70E065
:100AB0000E94450610920B0110920A011093090141
:100AC0000093080190920D0180920C0170920F0129
:100AD00060920E015092110140921001F0921301A8
:100AE000E09212011F910F91FF90EF90DF90CF9055
:100AF000BF90AF909F908F907F906F905F904F903E
:100B00000895823479F0833418F48134C9F405C02F
:100B1000833469F08434A1F40FC080EF8ABB8FE086
:100B20008BBB089580EF87BB8FE088BB089580EF73
:100B300084BB8FE085BB089580EF81BB8FE082BBD3
:100B40000895823461F0833418F4813469F405C067
:100B5000833439F0843441F406C06BBB089568BB1C
:100B6000089565BB089562BB0895823469F08334AB
:100B700018F4813429F406C0833441F0843449F0F8
:100B800080EF089589B303C086B301C083B38F702B
:100B9000089580B38F7008958B30910581F08C306B
:100BA00091051CF4079779F40CC08D30910519F06C
:100BB0000E9749F402C082E0089581E0089583E031
:100BC000089584E0089580E00895CF92DF92EF9237
:100BD000FF920F931F93CF93DF93062F8D3411F065
:100BE0008D3691F4802F6FEE0E94A10584EC99E080
:100BF0000197F1F7802F0E94B505992787FD909501
:100C00000E94CC05182F37C0843421F0843611F0AF
:100C100010E031C010E0C4E0D0E041E0C42ED12C9F
:100C200034ECE32E39E0F32EB6010C2E02C0660F31
:100C3000771F0A94E2F76095802F0E94A105C701F3
:100C40000197F1F7802F0E94B505992787FD9095B0
:100C50000E94CC05882359F0992787FD909501972C
:100C6000880F991F880F991F182F13501C0F21965A
:100C7000C830D105C9F6812FDF91CF911F910F9117
:100C8000FF90EF90DF90CF900895FB01DC01019081
:100C90000D920020E1F70895AEE0B0E0E2E5F6E065
:100CA0000C94FB080D891E8986E08C831A830983C6
:100CB0008FEF9FE79E838D839E01275E3F4FCE017E
:100CC00001966F89788DA9010E9470062F81388561
:100CD000020F131FF80110822E96E4E00C941709FE
:100CE000ABE0B0E0E6E7F6E00C94ED083C012B0148
:100CF0005A01FC0117821682838181FD03C06FEFC8
:100D00007FEFC6C19AE0892E1E010894211C311C78
:100D1000F3012381F20123FD859123FF81912F01AE
:100D2000882309F4B2C1853239F423FD859123FF6C
:100D300081912F01853229F490E0B3010E9463086C
:100D4000E7CF982FFF24EE249924FFE1FF15D0F080
:100D50009B3269F09C3228F4903259F0933291F42E
:100D60000EC09D3249F0903369F441E024C052E056
:100D7000F52A84E0F82A28C098E0F92A25C0E0E1A5
:100D8000FE2A22C0F7FC29C0892F80538A3070F4D4
:100D9000F6FE05C0989C902C1124980E15C0E89C76
:100DA000E02C1124E80EF0E2FF2A0EC09E3229F456
:100DB000F6FC6BC140E4F42A07C09C3619F450E8F5
:100DC000F52A02C0983649F4F20123FD959123FFDC
:100DD00091912F01992309F0B8CF892F8554833041
:100DE00018F08052833038F444E050E0A40EB51E71
:100DF0005FE359830FC0933631F0933779F0933521
:100E000009F056C020C0F5018081898342E050E09E
:100E1000A40EB51E610101E010E012C0F501C08012
:100E2000D180F6FC03C06FEF7FEF02C0692D70E048
:100E300042E050E0A40EB51EC6010E9458088C0185
:100E40005FE7F52214C0F501C080D180F6FC03C035
:100E50006FEF7FEF02C0692D70E042E050E0A40E1A
:100E6000B51EC6010E944D088C0150E8F52AF3FE1C
:100E700007C01AC080E290E0B3010E946308EA94C0
:100E80008E2D90E008171907A8F30EC0F601F7FCA5
:100E90008591F7FE81916F0190E0B3010E94630894
:100EA000E110EA94015010400115110579F7EAC0EC
:100EB000943611F0993669F5F7FE08C0F5012081E6
:100EC00031814281538184E090E00AC0F501808144
:100ED00091819C01442737FD4095542F82E090E09A
:100EE000A80EB91E9FE6F92257FF09C050954095FC
:100EF000309521953F4F4F4F5F4FE0E8FE2ACA01E2
:100F0000B901A1012AE030E00E948F08D82ED21842
:100F100040C0953729F41F2D1F7E2AE030E01DC008
:100F20001F2D197F9F3661F0903720F4983509F016
:100F3000ACC00FC0903739F0983709F0A6C004C094
:100F400028E030E00AC0106114FD146020E130E0B8
:100F500004C014FD166020E132E017FF08C0F5015F
:100F6000608171818281938144E050E008C0F50185
:100F700080819181BC0180E090E042E050E0A40ECD
:100F8000B51EA1010E948F08D82ED2188FE7F82E27
:100F9000F122F6FE0BC05EEFF522D91438F4F4FE10
:100FA00007C0F2FC05C08FEEF82202C01D2D01C063
:100FB000192DF4FE0DC0FE01ED0DF11D8081803371
:100FC00019F499EEF92208C01F5FF2FE05C003C0B4
:100FD0008F2D867809F01F5F0F2DF3FC14C0F0FEF3
:100FE0000FC01E1510F09D2C0BC09D2C9E0C911A4D
:100FF0001E2D06C080E290E0B3010E9463081F5FCF
:101000001E15C0F304C01E1510F4E11A01C0EE2431
:1010100004FF0FC080E390E0B3010E94630802FF69
:101020001DC001FD03C088E790E00EC088E590E098
:101030000BC0802F867891F001FF02C08BE201C0C7
:1010400080E2F7FC8DE290E0B3010E94630806C0E5
:1010500080E390E0B3010E9463089A94D914C0F32E
:10106000DA94F101ED0DF11D808190E0B3010E9451
:101070006308DD20A9F706C080E290E0B3010E947A
:101080006308EA94EE20C1F743CEF30166817781CD
:10109000CB012B96E2E10C940909FC01059061500B
:1010A00070400110D8F7809590958E0F9F1F08957E
:1010B000FC016150704001900110D8F78095909527
:1010C0008E0F9F1F08950F931F93CF93DF938C0173
:1010D000EB018B8181FF1BC082FF0DC02E813F8100
:1010E0008C819D812817390764F4E881F981019387
:1010F000F983E88306C0E885F985802F0995892B57
:1011000031F48E819F8101969F838E8302C00FEF01
:101110001FEFC801DF91CF911F910F910895FA0140
:10112000AA27283051F1203181F1E8946F936E7F26
:101130006E5F7F4F8F4F9F4FAF4FB1E03ED0B4E017
:101140003CD0670F781F891F9A1FA11D680F791F58
:101150008A1F911DA11D6A0F711D811D911DA11D69
:1011600020D009F468943F912AE0269F1124301979
:10117000305D3193DEF6CF010895462F4770405D14
:101180004193B3E00FD0C9F7F6CF462F4F70405DC3
:101190004A3318F0495D31FD4052419302D0A9F71E
:1011A000EACFB4E0A6959795879577956795BA9518
:1011B000C9F700976105710508959B01AC010A2EDE
:1011C00006945795479537952795BA95C9F7620FB5
:1011D000731F841F951FA01D08952F923F924F9259
:1011E0005F926F927F928F929F92AF92BF92CF92B7
:1011F000DF92EF92FF920F931F93CF93DF93CDB7C0
:10120000DEB7CA1BDB0B0FB6F894DEBF0FBECDBF37
:1012100009942A88398848885F846E847D848C8408
:101220009B84AA84B984C884DF80EE80FD800C8111
:101230001B81AA81B981CE0FD11D0FB6F894DEBFF4
:0C1240000FBECDBFED010895F894FFCF64
:10124C00486F6C6420436C65617220746F20657309
:10125C00636170650054696D653A202530326C7598
:10126C00207300232323454E44232323004D656E16
:10127C00752031004D656E752032004D656E752000
:10128C00330050726F6772616D20315F31005072A4
:10129C006F6772616D20315F320050726F677261DF
:1012AC006D20325F310050726F6772616D20325F5A
:1012BC00320050726F6772616D20335F3100506F76
:0E12CC0077726F7420646F204D656E7531006F
:00000001FF
