S02200004C6162355F74696D6572795F70727A657277616E69615F706A742E7372656376
S11300000C942A000C9434000C9434000C943400A6
S11300100C9434000C9434000C9434000C9434008C
S11300200C9434000C9434000C9434000C9434007C
S11300300C9434000C9434000C9434000C9434006C
S11300400C9434000C9434000C9434000C9434005C
S11300500C94340011241FBECFE5D8E0DEBFCDBF21
S11300600E9436000C9453000C9400008FEF8ABB5E
S113007087BB1BBA81E088BB89B7816089BF83B71E
S1130080876083BF80EF82BF82B78BBB08B600FE58
S113009003C083B7887F83BF8FE493EC0197F1F7A4
S10D00A000C00000F1CFF894FFCF78
S9030000FC
